{
  "_format": "hh-sol-artifact-1",
  "contractName": "GunzillaToken",
  "sourceName": "contracts/GunzillaToken.sol",
  "abi": [
    {
      "inputs": [],
      "name": "AccessControlBadConfirmation",
      "type": "error"
    },
    {
      "inputs": [
        {
          "internalType": "address",
          "name": "account",
          "type": "address"
        },
        {
          "internalType": "bytes32",
          "name": "neededRole",
          "type": "bytes32"
        }
      ],
      "name": "AccessControlUnauthorizedAccount",
      "type": "error"
    },
    {
      "inputs": [
        {
          "internalType": "address",
          "name": "spender",
          "type": "address"
        },
        {
          "internalType": "uint256",
          "name": "allowance",
          "type": "uint256"
        },
        {
          "internalType": "uint256",
          "name": "needed",
          "type": "uint256"
        }
      ],
      "name": "ERC20InsufficientAllowance",
      "type": "error"
    },
    {
      "inputs": [
        {
          "internalType": "address",
          "name": "sender",
          "type": "address"
        },
        {
          "internalType": "uint256",
          "name": "balance",
          "type": "uint256"
        },
        {
          "internalType": "uint256",
          "name": "needed",
          "type": "uint256"
        }
      ],
      "name": "ERC20InsufficientBalance",
      "type": "error"
    },
    {
      "inputs": [
        {
          "internalType": "address",
          "name": "approver",
          "type": "address"
        }
      ],
      "name": "ERC20InvalidApprover",
      "type": "error"
    },
    {
      "inputs": [
        {
          "internalType": "address",
          "name": "receiver",
          "type": "address"
        }
      ],
      "name": "ERC20InvalidReceiver",
      "type": "error"
    },
    {
      "inputs": [
        {
          "internalType": "address",
          "name": "sender",
          "type": "address"
        }
      ],
      "name": "ERC20InvalidSender",
      "type": "error"
    },
    {
      "inputs": [
        {
          "internalType": "address",
          "name": "spender",
          "type": "address"
        }
      ],
      "name": "ERC20InvalidSpender",
      "type": "error"
    },
    {
      "inputs": [],
      "name": "InvalidInitialization",
      "type": "error"
    },
    {
      "inputs": [],
      "name": "NotInitializing",
      "type": "error"
    },
    {
      "anonymous": false,
      "inputs": [
        {
          "indexed": true,
          "internalType": "address",
          "name": "owner",
          "type": "address"
        },
        {
          "indexed": true,
          "internalType": "address",
          "name": "spender",
          "type": "address"
        },
        {
          "indexed": false,
          "internalType": "uint256",
          "name": "value",
          "type": "uint256"
        }
      ],
      "name": "Approval",
      "type": "event"
    },
    {
      "anonymous": false,
      "inputs": [
        {
          "indexed": false,
          "internalType": "uint64",
          "name": "version",
          "type": "uint64"
        }
      ],
      "name": "Initialized",
      "type": "event"
    },
    {
      "anonymous": false,
      "inputs": [
        {
          "indexed": true,
          "internalType": "bytes32",
          "name": "role",
          "type": "bytes32"
        },
        {
          "indexed": true,
          "internalType": "bytes32",
          "name": "previousAdminRole",
          "type": "bytes32"
        },
        {
          "indexed": true,
          "internalType": "bytes32",
          "name": "newAdminRole",
          "type": "bytes32"
        }
      ],
      "name": "RoleAdminChanged",
      "type": "event"
    },
    {
      "anonymous": false,
      "inputs": [
        {
          "indexed": true,
          "internalType": "bytes32",
          "name": "role",
          "type": "bytes32"
        },
        {
          "indexed": true,
          "internalType": "address",
          "name": "account",
          "type": "address"
        },
        {
          "indexed": true,
          "internalType": "address",
          "name": "sender",
          "type": "address"
        }
      ],
      "name": "RoleGranted",
      "type": "event"
    },
    {
      "anonymous": false,
      "inputs": [
        {
          "indexed": true,
          "internalType": "bytes32",
          "name": "role",
          "type": "bytes32"
        },
        {
          "indexed": true,
          "internalType": "address",
          "name": "account",
          "type": "address"
        },
        {
          "indexed": true,
          "internalType": "address",
          "name": "sender",
          "type": "address"
        }
      ],
      "name": "RoleRevoked",
      "type": "event"
    },
    {
      "anonymous": false,
      "inputs": [
        {
          "indexed": true,
          "internalType": "address",
          "name": "from",
          "type": "address"
        },
        {
          "indexed": true,
          "internalType": "address",
          "name": "to",
          "type": "address"
        },
        {
          "indexed": false,
          "internalType": "uint256",
          "name": "value",
          "type": "uint256"
        }
      ],
      "name": "Transfer",
      "type": "event"
    },
    {
      "inputs": [],
      "name": "DEFAULT_ADMIN_ROLE",
      "outputs": [
        {
          "internalType": "bytes32",
          "name": "",
          "type": "bytes32"
        }
      ],
      "stateMutability": "view",
      "type": "function"
    },
    {
      "inputs": [
        {
          "internalType": "address",
          "name": "owner",
          "type": "address"
        },
        {
          "internalType": "address",
          "name": "spender",
          "type": "address"
        }
      ],
      "name": "allowance",
      "outputs": [
        {
          "internalType": "uint256",
          "name": "",
          "type": "uint256"
        }
      ],
      "stateMutability": "view",
      "type": "function"
    },
    {
      "inputs": [
        {
          "internalType": "address",
          "name": "spender",
          "type": "address"
        },
        {
          "internalType": "uint256",
          "name": "value",
          "type": "uint256"
        }
      ],
      "name": "approve",
      "outputs": [
        {
          "internalType": "bool",
          "name": "",
          "type": "bool"
        }
      ],
      "stateMutability": "nonpayable",
      "type": "function"
    },
    {
      "inputs": [
        {
          "internalType": "address",
          "name": "account",
          "type": "address"
        }
      ],
      "name": "balanceOf",
      "outputs": [
        {
          "internalType": "uint256",
          "name": "",
          "type": "uint256"
        }
      ],
      "stateMutability": "view",
      "type": "function"
    },
    {
      "inputs": [
        {
          "internalType": "uint256",
          "name": "value",
          "type": "uint256"
        }
      ],
      "name": "burn",
      "outputs": [],
      "stateMutability": "nonpayable",
      "type": "function"
    },
    {
      "inputs": [
        {
          "internalType": "address",
          "name": "account",
          "type": "address"
        },
        {
          "internalType": "uint256",
          "name": "value",
          "type": "uint256"
        }
      ],
      "name": "burnFrom",
      "outputs": [],
      "stateMutability": "nonpayable",
      "type": "function"
    },
    {
      "inputs": [],
      "name": "decimals",
      "outputs": [
        {
          "internalType": "uint8",
          "name": "",
          "type": "uint8"
        }
      ],
      "stateMutability": "view",
      "type": "function"
    },
    {
      "inputs": [
        {
          "internalType": "bytes32",
          "name": "role",
          "type": "bytes32"
        }
      ],
      "name": "getRoleAdmin",
      "outputs": [
        {
          "internalType": "bytes32",
          "name": "",
          "type": "bytes32"
        }
      ],
      "stateMutability": "view",
      "type": "function"
    },
    {
      "inputs": [
        {
          "internalType": "bytes32",
          "name": "role",
          "type": "bytes32"
        },
        {
          "internalType": "address",
          "name": "account",
          "type": "address"
        }
      ],
      "name": "grantRole",
      "outputs": [],
      "stateMutability": "nonpayable",
      "type": "function"
    },
    {
      "inputs": [
        {
          "internalType": "bytes32",
          "name": "role",
          "type": "bytes32"
        },
        {
          "internalType": "address",
          "name": "account",
          "type": "address"
        }
      ],
      "name": "hasRole",
      "outputs": [
        {
          "internalType": "bool",
          "name": "",
          "type": "bool"
        }
      ],
      "stateMutability": "view",
      "type": "function"
    },
    {
      "inputs": [],
      "name": "initialize",
      "outputs": [],
      "stateMutability": "nonpayable",
      "type": "function"
    },
    {
      "inputs": [
        {
          "internalType": "address",
          "name": "receiver",
          "type": "address"
        },
        {
          "internalType": "uint256",
          "name": "amount",
          "type": "uint256"
        }
      ],
      "name": "mint",
      "outputs": [],
      "stateMutability": "nonpayable",
      "type": "function"
    },
    {
      "inputs": [],
      "name": "name",
      "outputs": [
        {
          "internalType": "string",
          "name": "",
          "type": "string"
        }
      ],
      "stateMutability": "view",
      "type": "function"
    },
    {
      "inputs": [
        {
          "internalType": "bytes32",
          "name": "role",
          "type": "bytes32"
        },
        {
          "internalType": "address",
          "name": "callerConfirmation",
          "type": "address"
        }
      ],
      "name": "renounceRole",
      "outputs": [],
      "stateMutability": "nonpayable",
      "type": "function"
    },
    {
      "inputs": [
        {
          "internalType": "bytes32",
          "name": "role",
          "type": "bytes32"
        },
        {
          "internalType": "address",
          "name": "account",
          "type": "address"
        }
      ],
      "name": "revokeRole",
      "outputs": [],
      "stateMutability": "nonpayable",
      "type": "function"
    },
    {
      "inputs": [
        {
          "internalType": "bytes4",
          "name": "interfaceId",
          "type": "bytes4"
        }
      ],
      "name": "supportsInterface",
      "outputs": [
        {
          "internalType": "bool",
          "name": "",
          "type": "bool"
        }
      ],
      "stateMutability": "view",
      "type": "function"
    },
    {
      "inputs": [],
      "name": "symbol",
      "outputs": [
        {
          "internalType": "string",
          "name": "",
          "type": "string"
        }
      ],
      "stateMutability": "view",
      "type": "function"
    },
    {
      "inputs": [],
      "name": "totalSupply",
      "outputs": [
        {
          "internalType": "uint256",
          "name": "",
          "type": "uint256"
        }
      ],
      "stateMutability": "view",
      "type": "function"
    },
    {
      "inputs": [
        {
          "internalType": "address",
          "name": "to",
          "type": "address"
        },
        {
          "internalType": "uint256",
          "name": "value",
          "type": "uint256"
        }
      ],
      "name": "transfer",
      "outputs": [
        {
          "internalType": "bool",
          "name": "",
          "type": "bool"
        }
      ],
      "stateMutability": "nonpayable",
      "type": "function"
    },
    {
      "inputs": [
        {
          "internalType": "address",
          "name": "from",
          "type": "address"
        },
        {
          "internalType": "address",
          "name": "to",
          "type": "address"
        },
        {
          "internalType": "uint256",
          "name": "value",
          "type": "uint256"
        }
      ],
      "name": "transferFrom",
      "outputs": [
        {
          "internalType": "bool",
          "name": "",
          "type": "bool"
        }
      ],
      "stateMutability": "nonpayable",
      "type": "function"
    }
  ],
  "bytecode": "0x6080604052348015600f57600080fd5b50611eea8061001f6000396000f3fe608060405234801561001057600080fd5b506004361061012c5760003560e01c806342966c68116100ad57806395d89b411161007157806395d89b4114610341578063a217fddf1461035f578063a9059cbb1461037d578063d547741f146103ad578063dd62ed3e146103c95761012c565b806342966c681461029f57806370a08231146102bb57806379cc6790146102eb5780638129fc1c1461030757806391d14854146103115761012c565b8063248a9ca3116100f4578063248a9ca3146101fd5780632f2ff15d1461022d578063313ce5671461024957806336568abe1461026757806340c10f19146102835761012c565b806301ffc9a71461013157806306fdde0314610161578063095ea7b31461017f57806318160ddd146101af57806323b872dd146101cd575b600080fd5b61014b6004803603810190610146919061164c565b6103f9565b6040516101589190611694565b60405180910390f35b610169610473565b604051610176919061173f565b60405180910390f35b610199600480360381019061019491906117f5565b610514565b6040516101a69190611694565b60405180910390f35b6101b7610537565b6040516101c49190611844565b60405180910390f35b6101e760048036038101906101e2919061185f565b61054f565b6040516101f49190611694565b60405180910390f35b610217600480360381019061021291906118e8565b61057e565b6040516102249190611924565b60405180910390f35b6102476004803603810190610242919061193f565b6105ac565b005b6102516105ce565b60405161025e919061199b565b60405180910390f35b610281600480360381019061027c919061193f565b6105d7565b005b61029d600480360381019061029891906117f5565b610652565b005b6102b960048036038101906102b491906119b6565b61066e565b005b6102d560048036038101906102d091906119e3565b610690565b6040516102e29190611844565b60405180910390f35b610305600480360381019061030091906117f5565b6106e7565b005b61030f610715565b005b61032b6004803603810190610326919061193f565b610938565b6040516103389190611694565b60405180910390f35b6103496109b1565b604051610356919061173f565b60405180910390f35b610367610a52565b6040516103749190611924565b60405180910390f35b610397600480360381019061039291906117f5565b610a59565b6040516103a49190611694565b60405180910390f35b6103c760048036038101906103c2919061193f565b610a7c565b005b6103e360048036038101906103de9190611a10565b610a9e565b6040516103f09190611844565b60405180910390f35b60007f7965db0b000000000000000000000000000000000000000000000000000000007bffffffffffffffffffffffffffffffffffffffffffffffffffffffff1916827bffffffffffffffffffffffffffffffffffffffffffffffffffffffff1916148061046c575061046b82610b33565b5b9050919050565b6060600061047f610b9d565b905080600301805461049090611a7f565b80601f01602080910402602001604051908101604052809291908181526020018280546104bc90611a7f565b80156105095780601f106104de57610100808354040283529160200191610509565b820191906000526020600020905b8154815290600101906020018083116104ec57829003601f168201915b505050505091505090565b60008061051f610bc5565b905061052c818585610bcd565b600191505092915050565b600080610542610b9d565b9050806002015491505090565b60008061055a610bc5565b9050610567858285610bdf565b610572858585610c73565b60019150509392505050565b600080610589610d67565b905080600001600084815260200190815260200160002060010154915050919050565b6105b58261057e565b6105be81610d8f565b6105c88383610da3565b50505050565b60006012905090565b6105df610bc5565b73ffffffffffffffffffffffffffffffffffffffff168173ffffffffffffffffffffffffffffffffffffffff1614610643576040517f6697b23200000000000000000000000000000000000000000000000000000000815260040160405180910390fd5b61064d8282610ea4565b505050565b6000801b61065f81610d8f565b6106698383610fa6565b505050565b6000801b61067b81610d8f565b61068c610686610bc5565b83611028565b5050565b60008061069b610b9d565b90508060000160008473ffffffffffffffffffffffffffffffffffffffff1673ffffffffffffffffffffffffffffffffffffffff16815260200190815260200160002054915050919050565b6000801b6106f481610d8f565b61070683610700610bc5565b84610bdf565b6107108383611028565b505050565b600061071f6110aa565b905060008160000160089054906101000a900460ff1615905060008260000160009054906101000a900467ffffffffffffffff1690506000808267ffffffffffffffff1614801561076d5750825b9050600060018367ffffffffffffffff161480156107a2575060003073ffffffffffffffffffffffffffffffffffffffff163b145b9050811580156107b0575080155b156107e7576040517ff92ee8a900000000000000000000000000000000000000000000000000000000815260040160405180910390fd5b60018560000160006101000a81548167ffffffffffffffff021916908367ffffffffffffffff16021790555083156108375760018560000160086101000a81548160ff0219169083151502179055505b6108ab6040518060400160405280600e81526020017f47756e7a696c6c6120546f6b656e0000000000000000000000000000000000008152506040518060400160405280600381526020017f47554e00000000000000000000000000000000000000000000000000000000008152506110d2565b6108b361110f565b6108d46000801b7302d16347ba80b1d5813850d4336e2f702212bc51610da3565b5083156109315760008560000160086101000a81548160ff0219169083151502179055507fc7f505b2f371ae2175ee4913f4499e1f2633a7b5936321eed1cdaeb6115181d260016040516109289190611b09565b60405180910390a15b5050505050565b600080610943610d67565b905080600001600085815260200190815260200160002060000160008473ffffffffffffffffffffffffffffffffffffffff1673ffffffffffffffffffffffffffffffffffffffff16815260200190815260200160002060009054906101000a900460ff1691505092915050565b606060006109bd610b9d565b90508060040180546109ce90611a7f565b80601f01602080910402602001604051908101604052809291908181526020018280546109fa90611a7f565b8015610a475780601f10610a1c57610100808354040283529160200191610a47565b820191906000526020600020905b815481529060010190602001808311610a2a57829003601f168201915b505050505091505090565b6000801b81565b600080610a64610bc5565b9050610a71818585610c73565b600191505092915050565b610a858261057e565b610a8e81610d8f565b610a988383610ea4565b50505050565b600080610aa9610b9d565b90508060010160008573ffffffffffffffffffffffffffffffffffffffff1673ffffffffffffffffffffffffffffffffffffffff16815260200190815260200160002060008473ffffffffffffffffffffffffffffffffffffffff1673ffffffffffffffffffffffffffffffffffffffff1681526020019081526020016000205491505092915050565b60007f01ffc9a7000000000000000000000000000000000000000000000000000000007bffffffffffffffffffffffffffffffffffffffffffffffffffffffff1916827bffffffffffffffffffffffffffffffffffffffffffffffffffffffff1916149050919050565b60007f52c63247e1f47db19d5ce0460030c497f067ca4cebf71ba98eeadabe20bace00905090565b600033905090565b610bda8383836001611119565b505050565b6000610beb8484610a9e565b90507fffffffffffffffffffffffffffffffffffffffffffffffffffffffffffffffff8114610c6d5781811015610c5d578281836040517ffb8f41b2000000000000000000000000000000000000000000000000000000008152600401610c5493929190611b33565b60405180910390fd5b610c6c84848484036000611119565b5b50505050565b600073ffffffffffffffffffffffffffffffffffffffff168373ffffffffffffffffffffffffffffffffffffffff1603610ce55760006040517f96c6fd1e000000000000000000000000000000000000000000000000000000008152600401610cdc9190611b6a565b60405180910390fd5b600073ffffffffffffffffffffffffffffffffffffffff168273ffffffffffffffffffffffffffffffffffffffff1603610d575760006040517fec442f05000000000000000000000000000000000000000000000000000000008152600401610d4e9190611b6a565b60405180910390fd5b610d628383836112ff565b505050565b60007f02dd7bc7dec4dceedda775e58dd541e08a116c6c53815c0bd028192f7b626800905090565b610da081610d9b610bc5565b61153e565b50565b600080610dae610d67565b9050610dba8484610938565b610e9857600181600001600086815260200190815260200160002060000160008573ffffffffffffffffffffffffffffffffffffffff1673ffffffffffffffffffffffffffffffffffffffff16815260200190815260200160002060006101000a81548160ff021916908315150217905550610e34610bc5565b73ffffffffffffffffffffffffffffffffffffffff168373ffffffffffffffffffffffffffffffffffffffff16857f2f8788117e7eff1d82e926ec794901d17c78024a50270940304540a733656f0d60405160405180910390a46001915050610e9e565b60009150505b92915050565b600080610eaf610d67565b9050610ebb8484610938565b15610f9a57600081600001600086815260200190815260200160002060000160008573ffffffffffffffffffffffffffffffffffffffff1673ffffffffffffffffffffffffffffffffffffffff16815260200190815260200160002060006101000a81548160ff021916908315150217905550610f36610bc5565b73ffffffffffffffffffffffffffffffffffffffff168373ffffffffffffffffffffffffffffffffffffffff16857ff6391f5c32d9c69d2a47ea670b442974b53935d1edc7fd64eb21e047a839171b60405160405180910390a46001915050610fa0565b60009150505b92915050565b600073ffffffffffffffffffffffffffffffffffffffff168273ffffffffffffffffffffffffffffffffffffffff16036110185760006040517fec442f0500000000000000000000000000000000000000000000000000000000815260040161100f9190611b6a565b60405180910390fd5b611024600083836112ff565b5050565b600073ffffffffffffffffffffffffffffffffffffffff168273ffffffffffffffffffffffffffffffffffffffff160361109a5760006040517f96c6fd1e0000000000000000000000000000000000000000000000000000000081526004016110919190611b6a565b60405180910390fd5b6110a6826000836112ff565b5050565b60007ff0c57e16840df040f15088dc2f81fe391c3923bec73e23a9662efc9c229c6a00905090565b6110da61158f565b60006110e4610b9d565b9050828160030190816110f79190611d56565b50818160040190816111099190611d56565b50505050565b61111761158f565b565b6000611123610b9d565b9050600073ffffffffffffffffffffffffffffffffffffffff168573ffffffffffffffffffffffffffffffffffffffff16036111975760006040517fe602df0500000000000000000000000000000000000000000000000000000000815260040161118e9190611b6a565b60405180910390fd5b600073ffffffffffffffffffffffffffffffffffffffff168473ffffffffffffffffffffffffffffffffffffffff16036112095760006040517f94280d620000000000000000000000000000000000000000000000000000000081526004016112009190611b6a565b60405180910390fd5b828160010160008773ffffffffffffffffffffffffffffffffffffffff1673ffffffffffffffffffffffffffffffffffffffff16815260200190815260200160002060008673ffffffffffffffffffffffffffffffffffffffff1673ffffffffffffffffffffffffffffffffffffffff1681526020019081526020016000208190555081156112f8578373ffffffffffffffffffffffffffffffffffffffff168573ffffffffffffffffffffffffffffffffffffffff167f8c5be1e5ebec7d5bd14f71427d1e84f3dd0314c0f7b2291e5b200ac8c7c3b925856040516112ef9190611844565b60405180910390a35b5050505050565b6000611309610b9d565b9050600073ffffffffffffffffffffffffffffffffffffffff168473ffffffffffffffffffffffffffffffffffffffff160361135f57818160020160008282546113539190611e57565b92505081905550611438565b60008160000160008673ffffffffffffffffffffffffffffffffffffffff1673ffffffffffffffffffffffffffffffffffffffff168152602001908152602001600020549050828110156113ee578481846040517fe450d38c0000000000000000000000000000000000000000000000000000000081526004016113e593929190611b33565b60405180910390fd5b8281038260000160008773ffffffffffffffffffffffffffffffffffffffff1673ffffffffffffffffffffffffffffffffffffffff16815260200190815260200160002081905550505b600073ffffffffffffffffffffffffffffffffffffffff168373ffffffffffffffffffffffffffffffffffffffff1603611483578181600201600082825403925050819055506114d3565b818160000160008573ffffffffffffffffffffffffffffffffffffffff1673ffffffffffffffffffffffffffffffffffffffff168152602001908152602001600020600082825401925050819055505b8273ffffffffffffffffffffffffffffffffffffffff168473ffffffffffffffffffffffffffffffffffffffff167fddf252ad1be2c89b69c2b068fc378daa952ba7f163c4a11628f55a4df523b3ef846040516115309190611844565b60405180910390a350505050565b6115488282610938565b61158b5780826040517fe2517d3f000000000000000000000000000000000000000000000000000000008152600401611582929190611e8b565b60405180910390fd5b5050565b6115976115cf565b6115cd576040517fd7e6bcf800000000000000000000000000000000000000000000000000000000815260040160405180910390fd5b565b60006115d96110aa565b60000160089054906101000a900460ff16905090565b600080fd5b60007fffffffff0000000000000000000000000000000000000000000000000000000082169050919050565b611629816115f4565b811461163457600080fd5b50565b60008135905061164681611620565b92915050565b600060208284031215611662576116616115ef565b5b600061167084828501611637565b91505092915050565b60008115159050919050565b61168e81611679565b82525050565b60006020820190506116a96000830184611685565b92915050565b600081519050919050565b600082825260208201905092915050565b60005b838110156116e95780820151818401526020810190506116ce565b60008484015250505050565b6000601f19601f8301169050919050565b6000611711826116af565b61171b81856116ba565b935061172b8185602086016116cb565b611734816116f5565b840191505092915050565b600060208201905081810360008301526117598184611706565b905092915050565b600073ffffffffffffffffffffffffffffffffffffffff82169050919050565b600061178c82611761565b9050919050565b61179c81611781565b81146117a757600080fd5b50565b6000813590506117b981611793565b92915050565b6000819050919050565b6117d2816117bf565b81146117dd57600080fd5b50565b6000813590506117ef816117c9565b92915050565b6000806040838503121561180c5761180b6115ef565b5b600061181a858286016117aa565b925050602061182b858286016117e0565b9150509250929050565b61183e816117bf565b82525050565b60006020820190506118596000830184611835565b92915050565b600080600060608486031215611878576118776115ef565b5b6000611886868287016117aa565b9350506020611897868287016117aa565b92505060406118a8868287016117e0565b9150509250925092565b6000819050919050565b6118c5816118b2565b81146118d057600080fd5b50565b6000813590506118e2816118bc565b92915050565b6000602082840312156118fe576118fd6115ef565b5b600061190c848285016118d3565b91505092915050565b61191e816118b2565b82525050565b60006020820190506119396000830184611915565b92915050565b60008060408385031215611956576119556115ef565b5b6000611964858286016118d3565b9250506020611975858286016117aa565b9150509250929050565b600060ff82169050919050565b6119958161197f565b82525050565b60006020820190506119b0600083018461198c565b92915050565b6000602082840312156119cc576119cb6115ef565b5b60006119da848285016117e0565b91505092915050565b6000602082840312156119f9576119f86115ef565b5b6000611a07848285016117aa565b91505092915050565b60008060408385031215611a2757611a266115ef565b5b6000611a35858286016117aa565b9250506020611a46858286016117aa565b9150509250929050565b7f4e487b7100000000000000000000000000000000000000000000000000000000600052602260045260246000fd5b60006002820490506001821680611a9757607f821691505b602082108103611aaa57611aa9611a50565b5b50919050565b6000819050919050565b600067ffffffffffffffff82169050919050565b6000819050919050565b6000611af3611aee611ae984611ab0565b611ace565b611aba565b9050919050565b611b0381611ad8565b82525050565b6000602082019050611b1e6000830184611afa565b92915050565b611b2d81611781565b82525050565b6000606082019050611b486000830186611b24565b611b556020830185611835565b611b626040830184611835565b949350505050565b6000602082019050611b7f6000830184611b24565b92915050565b7f4e487b7100000000000000000000000000000000000000000000000000000000600052604160045260246000fd5b60008190508160005260206000209050919050565b60006020601f8301049050919050565b600082821b905092915050565b600060088302611c167fffffffffffffffffffffffffffffffffffffffffffffffffffffffffffffffff82611bd9565b611c208683611bd9565b95508019841693508086168417925050509392505050565b6000611c53611c4e611c49846117bf565b611ace565b6117bf565b9050919050565b6000819050919050565b611c6d83611c38565b611c81611c7982611c5a565b848454611be6565b825550505050565b600090565b611c96611c89565b611ca1818484611c64565b505050565b5b81811015611cc557611cba600082611c8e565b600181019050611ca7565b5050565b601f821115611d0a57611cdb81611bb4565b611ce484611bc9565b81016020851015611cf3578190505b611d07611cff85611bc9565b830182611ca6565b50505b505050565b600082821c905092915050565b6000611d2d60001984600802611d0f565b1980831691505092915050565b6000611d468383611d1c565b9150826002028217905092915050565b611d5f826116af565b67ffffffffffffffff811115611d7857611d77611b85565b5b611d828254611a7f565b611d8d828285611cc9565b600060209050601f831160018114611dc05760008415611dae578287015190505b611db88582611d3a565b865550611e20565b601f198416611dce86611bb4565b60005b82811015611df657848901518255600182019150602085019450602081019050611dd1565b86831015611e135784890151611e0f601f891682611d1c565b8355505b6001600288020188555050505b505050505050565b7f4e487b7100000000000000000000000000000000000000000000000000000000600052601160045260246000fd5b6000611e62826117bf565b9150611e6d836117bf565b9250828201905080821115611e8557611e84611e28565b5b92915050565b6000604082019050611ea06000830185611b24565b611ead6020830184611915565b939250505056fea26469706673582212205977a26c34b306badc1ba38da43f10f2be4f36f61a3f69a8481f9b9cf2a071ca64736f6c634300081c0033",
  "linkReferences": {},
  "deployedLinkReferences": {}
}